{
  "_format": "hh-sol-artifact-1",
  "contractName": "Web3RSVP",
  "sourceName": "contracts/Web3RSVP.sol",
  "abi": [
    {
      "anonymous": false,
      "inputs": [
        {
          "indexed": false,
          "internalType": "bytes32",
          "name": "eventID",
          "type": "bytes32"
        },
        {
          "indexed": false,
          "internalType": "address",
          "name": "attendeeAddress",
          "type": "address"
        }
      ],
      "name": "ConfirmedAttendee",
      "type": "event"
    },
    {
      "anonymous": false,
      "inputs": [
        {
          "indexed": false,
          "internalType": "bytes32",
          "name": "eventID",
          "type": "bytes32"
        }
      ],
      "name": "DepositsPaidOut",
      "type": "event"
    },
    {
      "anonymous": false,
      "inputs": [
        {
          "indexed": false,
          "internalType": "bytes32",
          "name": "eventID",
          "type": "bytes32"
        },
        {
          "indexed": false,
          "internalType": "address",
          "name": "creatorAddress",
          "type": "address"
        },
        {
          "indexed": false,
          "internalType": "uint256",
          "name": "eventTimestamp",
          "type": "uint256"
        },
        {
          "indexed": false,
          "internalType": "uint256",
          "name": "maxCapacity",
          "type": "uint256"
        },
        {
          "indexed": false,
          "internalType": "uint256",
          "name": "deposit",
          "type": "uint256"
        },
        {
          "indexed": false,
          "internalType": "string",
          "name": "eventDataCID",
          "type": "string"
        }
      ],
      "name": "NewEventCreated",
      "type": "event"
    },
    {
      "anonymous": false,
      "inputs": [
        {
          "indexed": false,
          "internalType": "bytes32",
          "name": "eventID",
          "type": "bytes32"
        },
        {
          "indexed": false,
          "internalType": "address",
          "name": "attendeeAddress",
          "type": "address"
        }
      ],
      "name": "NewRSVP",
      "type": "event"
    },
    {
      "inputs": [
        {
          "internalType": "bytes32",
          "name": "eventId",
          "type": "bytes32"
        }
      ],
      "name": "confirmAllAttendees",
      "outputs": [],
      "stateMutability": "nonpayable",
      "type": "function"
    },
    {
      "inputs": [
        {
          "internalType": "bytes32",
          "name": "eventId",
          "type": "bytes32"
        },
        {
          "internalType": "address",
          "name": "attendee",
          "type": "address"
        }
      ],
      "name": "confirmAttendee",
      "outputs": [],
      "stateMutability": "nonpayable",
      "type": "function"
    },
    {
      "inputs": [
        {
          "internalType": "uint256",
          "name": "eventTimestamp",
          "type": "uint256"
        },
        {
          "internalType": "uint256",
          "name": "deposit",
          "type": "uint256"
        },
        {
          "internalType": "uint256",
          "name": "maxCapacity",
          "type": "uint256"
        },
        {
          "internalType": "string",
          "name": "eventDataCID",
          "type": "string"
        }
      ],
      "name": "createNewEvent",
      "outputs": [],
      "stateMutability": "nonpayable",
      "type": "function"
    },
    {
      "inputs": [
        {
          "internalType": "bytes32",
          "name": "eventId",
          "type": "bytes32"
        }
      ],
      "name": "createNewRSVP",
      "outputs": [],
      "stateMutability": "payable",
      "type": "function"
    },
    {
      "inputs": [
        {
          "internalType": "bytes32",
          "name": "",
          "type": "bytes32"
        }
      ],
      "name": "idToEvent",
      "outputs": [
        {
          "internalType": "bytes32",
          "name": "eventId",
          "type": "bytes32"
        },
        {
          "internalType": "string",
          "name": "eventDataCID",
          "type": "string"
        },
        {
          "internalType": "address",
          "name": "eventOwner",
          "type": "address"
        },
        {
          "internalType": "uint256",
          "name": "eventTimestamp",
          "type": "uint256"
        },
        {
          "internalType": "uint256",
          "name": "deposit",
          "type": "uint256"
        },
        {
          "internalType": "uint256",
          "name": "maxCapacity",
          "type": "uint256"
        },
        {
          "internalType": "bool",
          "name": "paidOut",
          "type": "bool"
        }
      ],
      "stateMutability": "view",
      "type": "function"
    },
    {
      "inputs": [
        {
          "internalType": "bytes32",
          "name": "eventId",
          "type": "bytes32"
        }
      ],
      "name": "withdrawUnclaimedDeposits",
      "outputs": [],
      "stateMutability": "nonpayable",
      "type": "function"
    }
  ],
  "bytecode": "0x608060405234801561001057600080fd5b506121fb806100206000396000f3fe6080604052600436106100545760003560e01c806292098c1461005957806317f0165a146100825780636dcdf2cd1461009e57806379747571146100c7578063909ef021146100f0578063acdbe01214610133575b600080fd5b34801561006557600080fd5b50610080600480360381019061007b919061169f565b61015c565b005b61009c6004803603810190610097919061163a565b61037a565b005b3480156100aa57600080fd5b506100c560048036038101906100c09190611663565b61060d565b005b3480156100d357600080fd5b506100ee60048036038101906100e9919061163a565b610b7e565b005b3480156100fc57600080fd5b506101176004803603810190610112919061163a565b611036565b60405161012a9796959493929190611ae9565b60405180910390f35b34801561013f57600080fd5b5061015a6004803603810190610155919061163a565b61112d565b005b6000333087878744604051602001610179969594939291906119b6565b60405160208183030381529060405280519060200120905060608060405180610120016040528084815260200186868080601f016020809104026020016040519081016040528093929190818152602001838380828437600081840152601f19601f8201169050808301925050505050505081526020013373ffffffffffffffffffffffffffffffffffffffff16815260200189815260200188815260200187815260200183815260200182815260200160001515815250600080858152602001908152602001600020600082015181600001556020820151816001019080519060200190610269929190611484565b5060408201518160020160006101000a81548173ffffffffffffffffffffffffffffffffffffffff021916908373ffffffffffffffffffffffffffffffffffffffff160217905550606082015181600301556080820151816004015560a0820151816005015560c08201518160060190805190602001906102eb92919061150a565b5060e082015181600701908051906020019061030892919061150a565b506101008201518160080160006101000a81548160ff0219169083151502179055509050507f2553138c3f9c9008f266dbdbe9fc64f5b71e098d06ef714a190a65a8b9fc6bf383338a898b8a8a6040516103689796959493929190611a7f565b60405180910390a15050505050505050565b60008060008381526020019081526020016000209050806004015434146103d6576040517f08c379a00000000000000000000000000000000000000000000000000000000081526004016103cd90611c1f565b60405180910390fd5b806003015442111561041d576040517f08c379a000000000000000000000000000000000000000000000000000000000815260040161041490611bbf565b60405180910390fd5b806005015481600601805490501061046a576040517f08c379a000000000000000000000000000000000000000000000000000000000815260040161046190611bff565b60405180910390fd5b60005b81600601805490508160ff16101561056a573373ffffffffffffffffffffffffffffffffffffffff16826006018260ff16815481106104d5577f4e487b7100000000000000000000000000000000000000000000000000000000600052603260045260246000fd5b9060005260206000200160009054906101000a900473ffffffffffffffffffffffffffffffffffffffff1673ffffffffffffffffffffffffffffffffffffffff161415610557576040517f08c379a000000000000000000000000000000000000000000000000000000000815260040161054e90611bdf565b60405180910390fd5b808061056290611ebd565b91505061046d565b5080600601339080600181540180825580915050600190039060005260206000200160009091909190916101000a81548173ffffffffffffffffffffffffffffffffffffffff021916908373ffffffffffffffffffffffffffffffffffffffff1602179055507fb79f4240bbdd272d98e02a5db7f0cf156e5fc000961c517670a26eeeec63ed908233604051610601929190611a56565b60405180910390a15050565b600080600084815260200190815260200160002090508060020160009054906101000a900473ffffffffffffffffffffffffffffffffffffffff1673ffffffffffffffffffffffffffffffffffffffff163373ffffffffffffffffffffffffffffffffffffffff16146106b5576040517f08c379a00000000000000000000000000000000000000000000000000000000081526004016106ac90611c9f565b60405180910390fd5b600080600090505b82600601805490508160ff1610156107ec578373ffffffffffffffffffffffffffffffffffffffff16836006018260ff1681548110610725577f4e487b7100000000000000000000000000000000000000000000000000000000600052603260045260246000fd5b9060005260206000200160009054906101000a900473ffffffffffffffffffffffffffffffffffffffff1673ffffffffffffffffffffffffffffffffffffffff1614156107d957826006018160ff16815481106107ab577f4e487b7100000000000000000000000000000000000000000000000000000000600052603260045260246000fd5b9060005260206000200160009054906101000a900473ffffffffffffffffffffffffffffffffffffffff1691505b80806107e490611ebd565b9150506106bd565b508273ffffffffffffffffffffffffffffffffffffffff168173ffffffffffffffffffffffffffffffffffffffff161461085b576040517f08c379a000000000000000000000000000000000000000000000000000000000815260040161085290611c5f565b60405180910390fd5b60005b82600701805490508160ff16101561095b578373ffffffffffffffffffffffffffffffffffffffff16836007018260ff16815481106108c6577f4e487b7100000000000000000000000000000000000000000000000000000000600052603260045260246000fd5b9060005260206000200160009054906101000a900473ffffffffffffffffffffffffffffffffffffffff1673ffffffffffffffffffffffffffffffffffffffff161415610948576040517f08c379a000000000000000000000000000000000000000000000000000000000815260040161093f90611b5f565b60405180910390fd5b808061095390611ebd565b91505061085e565b50600015158260080160009054906101000a900460ff161515146109b4576040517f08c379a00000000000000000000000000000000000000000000000000000000081526004016109ab90611b7f565b60405180910390fd5b81600701839080600181540180825580915050600190039060005260206000200160009091909190916101000a81548173ffffffffffffffffffffffffffffffffffffffff021916908373ffffffffffffffffffffffffffffffffffffffff16021790555060008373ffffffffffffffffffffffffffffffffffffffff168360040154604051610a4390611a26565b60006040518083038185875af1925050503d8060008114610a80576040519150601f19603f3d011682016040523d82523d6000602084013e610a85565b606091505b5050905080610afe5782600701805480610ac8577f4e487b7100000000000000000000000000000000000000000000000000000000600052603160045260246000fd5b6001900381819060005260206000200160006101000a81549073ffffffffffffffffffffffffffffffffffffffff021916905590555b80610b3e576040517f08c379a0000000000000000000000000000000000000000000000000000000008152600401610b3590611b9f565b60405180910390fd5b7ff8d1583a733d83bdd3ef5464129d0a95a36d62b382d31c6d0467a61f4264381b8585604051610b6f929190611a56565b60405180910390a15050505050565b60008060008381526020019081526020016000206040518061012001604052908160008201548152602001600182018054610bb890611e8b565b80601f0160208091040260200160405190810160405280929190818152602001828054610be490611e8b565b8015610c315780601f10610c0657610100808354040283529160200191610c31565b820191906000526020600020905b815481529060010190602001808311610c1457829003601f168201915b505050505081526020016002820160009054906101000a900473ffffffffffffffffffffffffffffffffffffffff1673ffffffffffffffffffffffffffffffffffffffff1673ffffffffffffffffffffffffffffffffffffffff16815260200160038201548152602001600482015481526020016005820154815260200160068201805480602002602001604051908101604052809291908181526020018280548015610d3357602002820191906000526020600020905b8160009054906101000a900473ffffffffffffffffffffffffffffffffffffffff1673ffffffffffffffffffffffffffffffffffffffff1681526020019060010190808311610ce9575b5050505050815260200160078201805480602002602001604051908101604052809291908181526020018280548015610dc157602002820191906000526020600020905b8160009054906101000a900473ffffffffffffffffffffffffffffffffffffffff1673ffffffffffffffffffffffffffffffffffffffff1681526020019060010190808311610d77575b505050505081526020016008820160009054906101000a900460ff161515151581525050905080610100015115610e2d576040517f08c379a0000000000000000000000000000000000000000000000000000000008152600401610e2490611c3f565b60405180910390fd5b62093a808160600151610e409190611d06565b421015610e82576040517f08c379a0000000000000000000000000000000000000000000000000000000008152600401610e7990611cbf565b60405180910390fd5b806040015173ffffffffffffffffffffffffffffffffffffffff163373ffffffffffffffffffffffffffffffffffffffff1614610ef4576040517f08c379a0000000000000000000000000000000000000000000000000000000008152600401610eeb90611c7f565b60405180910390fd5b60008160e00151518260c0015151610f0c9190611db6565b90506000826080015182610f209190611d5c565b905060018361010001901515908115158152505060003373ffffffffffffffffffffffffffffffffffffffff1682604051610f5a90611a26565b60006040518083038185875af1925050503d8060008114610f97576040519150601f19603f3d011682016040523d82523d6000602084013e610f9c565b606091505b5050905080610fb8576000846101000190151590811515815250505b80610ff8576040517f08c379a0000000000000000000000000000000000000000000000000000000008152600401610fef90611b9f565b60405180910390fd5b7f393073ea1365f611c3d2f240c992960d2b99dc81715555d3fc40fc55ba80af9c856040516110279190611a3b565b60405180910390a15050505050565b600060205280600052604060002060009150905080600001549080600101805461105f90611e8b565b80601f016020809104026020016040519081016040528092919081815260200182805461108b90611e8b565b80156110d85780601f106110ad576101008083540402835291602001916110d8565b820191906000526020600020905b8154815290600101906020018083116110bb57829003601f168201915b5050505050908060020160009054906101000a900473ffffffffffffffffffffffffffffffffffffffff16908060030154908060040154908060050154908060080160009054906101000a900460ff16905087565b6000806000838152602001908152602001600020604051806101200160405290816000820154815260200160018201805461116790611e8b565b80601f016020809104026020016040519081016040528092919081815260200182805461119390611e8b565b80156111e05780601f106111b5576101008083540402835291602001916111e0565b820191906000526020600020905b8154815290600101906020018083116111c357829003601f168201915b505050505081526020016002820160009054906101000a900473ffffffffffffffffffffffffffffffffffffffff1673ffffffffffffffffffffffffffffffffffffffff1673ffffffffffffffffffffffffffffffffffffffff168152602001600382015481526020016004820154815260200160058201548152602001600682018054806020026020016040519081016040528092919081815260200182805480156112e257602002820191906000526020600020905b8160009054906101000a900473ffffffffffffffffffffffffffffffffffffffff1673ffffffffffffffffffffffffffffffffffffffff1681526020019060010190808311611298575b505050505081526020016007820180548060200260200160405190810160405280929190818152602001828054801561137057602002820191906000526020600020905b8160009054906101000a900473ffffffffffffffffffffffffffffffffffffffff1673ffffffffffffffffffffffffffffffffffffffff1681526020019060010190808311611326575b505050505081526020016008820160009054906101000a900460ff1615151515815250509050806040015173ffffffffffffffffffffffffffffffffffffffff163373ffffffffffffffffffffffffffffffffffffffff1614611408576040517f08c379a00000000000000000000000000000000000000000000000000000000081526004016113ff90611c9f565b60405180910390fd5b60005b8160c00151518160ff16101561147f5761146c838360c001518360ff168151811061145f577f4e487b7100000000000000000000000000000000000000000000000000000000600052603260045260246000fd5b602002602001015161060d565b808061147790611ebd565b91505061140b565b505050565b82805461149090611e8b565b90600052602060002090601f0160209004810192826114b257600085556114f9565b82601f106114cb57805160ff19168380011785556114f9565b828001600101855582156114f9579182015b828111156114f85782518255916020019190600101906114dd565b5b5090506115069190611594565b5090565b828054828255906000526020600020908101928215611583579160200282015b828111156115825782518260006101000a81548173ffffffffffffffffffffffffffffffffffffffff021916908373ffffffffffffffffffffffffffffffffffffffff1602179055509160200191906001019061152a565b5b5090506115909190611594565b5090565b5b808211156115ad576000816000905550600101611595565b5090565b6000813590506115c081612180565b92915050565b6000813590506115d581612197565b92915050565b60008083601f8401126115ed57600080fd5b8235905067ffffffffffffffff81111561160657600080fd5b60208301915083600182028301111561161e57600080fd5b9250929050565b600081359050611634816121ae565b92915050565b60006020828403121561164c57600080fd5b600061165a848285016115c6565b91505092915050565b6000806040838503121561167657600080fd5b6000611684858286016115c6565b9250506020611695858286016115b1565b9150509250929050565b6000806000806000608086880312156116b757600080fd5b60006116c588828901611625565b95505060206116d688828901611625565b94505060406116e788828901611625565b935050606086013567ffffffffffffffff81111561170457600080fd5b611710888289016115db565b92509250509295509295909350565b61172881611dea565b82525050565b61173f61173a82611dea565b611ee7565b82525050565b61174e81611dfc565b82525050565b61175d81611e08565b82525050565b600061176f8385611cf5565b935061177c838584611e49565b61178583611f73565b840190509392505050565b600061179b82611cdf565b6117a58185611cf5565b93506117b5818560208601611e58565b6117be81611f73565b840191505092915050565b60006117d6600f83611cf5565b91506117e182611f91565b602082019050919050565b60006117f9601083611cf5565b915061180482611fba565b602082019050919050565b600061181c601483611cf5565b915061182782611fe3565b602082019050919050565b600061183f601083611cf5565b915061184a8261200c565b602082019050919050565b6000611862601183611cf5565b915061186d82612035565b602082019050919050565b6000611885601f83611cf5565b91506118908261205e565b602082019050919050565b60006118a8600a83611cf5565b91506118b382612087565b602082019050919050565b60006118cb600c83611cf5565b91506118d6826120b0565b602082019050919050565b60006118ee601283611cf5565b91506118f9826120d9565b602082019050919050565b6000611911600083611cea565b915061191c82612102565b600082019050919050565b6000611934601383611cf5565b915061193f82612105565b602082019050919050565b6000611957600e83611cf5565b91506119628261212e565b602082019050919050565b600061197a600983611cf5565b915061198582612157565b602082019050919050565b61199981611e32565b82525050565b6119b06119ab82611e32565b611f0b565b82525050565b60006119c2828961172e565b6014820191506119d2828861172e565b6014820191506119e2828761199f565b6020820191506119f2828661199f565b602082019150611a02828561199f565b602082019150611a12828461199f565b602082019150819050979650505050505050565b6000611a3182611904565b9150819050919050565b6000602082019050611a506000830184611754565b92915050565b6000604082019050611a6b6000830185611754565b611a78602083018461171f565b9392505050565b600060c082019050611a94600083018a611754565b611aa1602083018961171f565b611aae6040830188611990565b611abb6060830187611990565b611ac86080830186611990565b81810360a0830152611adb818486611763565b905098975050505050505050565b600060e082019050611afe600083018a611754565b8181036020830152611b108189611790565b9050611b1f604083018861171f565b611b2c6060830187611990565b611b396080830186611990565b611b4660a0830185611990565b611b5360c0830184611745565b98975050505050505050565b60006020820190508181036000830152611b78816117c9565b9050919050565b60006020820190508181036000830152611b98816117ec565b9050919050565b60006020820190508181036000830152611bb88161180f565b9050919050565b60006020820190508181036000830152611bd881611832565b9050919050565b60006020820190508181036000830152611bf881611855565b9050919050565b60006020820190508181036000830152611c1881611878565b9050919050565b60006020820190508181036000830152611c388161189b565b9050919050565b60006020820190508181036000830152611c58816118be565b9050919050565b60006020820190508181036000830152611c78816118e1565b9050919050565b60006020820190508181036000830152611c9881611927565b9050919050565b60006020820190508181036000830152611cb88161194a565b9050919050565b60006020820190508181036000830152611cd88161196d565b9050919050565b600081519050919050565b600081905092915050565b600082825260208201905092915050565b6000611d1182611e32565b9150611d1c83611e32565b9250827fffffffffffffffffffffffffffffffffffffffffffffffffffffffffffffffff03821115611d5157611d50611f15565b5b828201905092915050565b6000611d6782611e32565b9150611d7283611e32565b9250817fffffffffffffffffffffffffffffffffffffffffffffffffffffffffffffffff0483118215151615611dab57611daa611f15565b5b828202905092915050565b6000611dc182611e32565b9150611dcc83611e32565b925082821015611ddf57611dde611f15565b5b828203905092915050565b6000611df582611e12565b9050919050565b60008115159050919050565b6000819050919050565b600073ffffffffffffffffffffffffffffffffffffffff82169050919050565b6000819050919050565b600060ff82169050919050565b82818337600083830152505050565b60005b83811015611e76578082015181840152602081019050611e5b565b83811115611e85576000848401525b50505050565b60006002820490506001821680611ea357607f821691505b60208210811415611eb757611eb6611f44565b5b50919050565b6000611ec882611e3c565b915060ff821415611edc57611edb611f15565b5b600182019050919050565b6000611ef282611ef9565b9050919050565b6000611f0482611f84565b9050919050565b6000819050919050565b7f4e487b7100000000000000000000000000000000000000000000000000000000600052601160045260246000fd5b7f4e487b7100000000000000000000000000000000000000000000000000000000600052602260045260246000fd5b6000601f19601f8301169050919050565b60008160601b9050919050565b7f414c524541445920434c41494d45440000000000000000000000000000000000600082015250565b7f414c52454144592050414944204f555400000000000000000000000000000000600082015250565b7f4661696c656420746f2073656e64204574686572000000000000000000000000600082015250565b7f414c52454144592048415050454e454400000000000000000000000000000000600082015250565b7f414c524541445920434f4e4649524d4544000000000000000000000000000000600082015250565b7f54686973206576656e7420686173207265616368656420636170616369747900600082015250565b7f4e4f5420454e4f55474800000000000000000000000000000000000000000000600082015250565b7f414c524541445920504149440000000000000000000000000000000000000000600082015250565b7f4e4f205253565020544f20434f4e4649524d0000000000000000000000000000600082015250565b50565b7f4d555354204245204556454e54204f574e455200000000000000000000000000600082015250565b7f4e4f5420415554484f52495a4544000000000000000000000000000000000000600082015250565b7f544f4f204541524c590000000000000000000000000000000000000000000000600082015250565b61218981611dea565b811461219457600080fd5b50565b6121a081611e08565b81146121ab57600080fd5b50565b6121b781611e32565b81146121c257600080fd5b5056fea2646970667358221220d4fea89384b367b05c826d99eb00ae6467ee939e691f661953573cb15a6652f564736f6c63430008040033",
  "linkReferences": {},
  "deployedLinkReferences": {}
}